:020000040000FA
:100000000128831203138501831603178801031344
:10001000FF308500831283120313860103178316B2
:10002000890103138316FF3086008312870183162C
:100030000030870083128801831600308800831205
:100040000F178F160F120F108312851928287C287E
:100050009D248316811283120130C500493084002B
:100060008D2443195C284822431C30283C08C800D2
:100070008000840AC4214108C700C7094808C7078F
:10008000C70F462843283C08C8003A28410880008A
:10009000840A88237523FC21AB24EB30C507C50AED
:1000A00003195528AE24C50A3028FC2196248D2436
:1000B000431D56281530C500A424C5034A308400CA
:1000C0004822431C6028BC090008BC07BC0A03196D
:1000D0006F28C42188237523FC2184037528840399
:1000E0000008C10088237523FC21C50303192828B3
:1000F000840A840A840A6028B12408108814081528
:1001000006188B28200FA000A01F8B280715881623
:10011000061C8828A52986189628210FA100A11F52
:10012000962887148816861C9328A5290619A128C5
:10013000220FA200A21FA12807148816061D9E28C0
:10014000A5298619AC28230FA300A31FAC280716E6
:100150008816861DA928A529061AB728240FA400E9
:10016000A41FB72887168816061EB428A529861A44
:10017000C228250FA500A51FC22807178816861EAE
:10018000BF28A5290518CD28260FA600A61FCD2813
:1001900087178816051CCA28A5298518D828270F6F
:1001A000A700A71FD82808168816851CD528A529BA
:1001B0000519E328280FA800A81FE328871588162B
:1001C000051DE028A5290814881008158618F128AF
:1001D000290FA900A91FF12807150817861CEE286A
:1001E000A5290619FC282A0FAA00AA1FFC28871493
:1001F0000817061DF928A529861907292B0FAB001A
:10020000AB1F072907140817861D0429A529061AFC
:1002100012292C0FAC00AC1F122907160817061E56
:100220000F29A529861A1D292D0FAD00AD1F1D29E7
:1002300087160817861E1A29A529051828292E0FA2
:10024000AE00AE1F282907170817051C2529A52968
:10025000851833292F0FAF00AF1F332987170817D1
:10026000851C3029A52905193E29300FB000B01F83
:100270003E2908160817051D3B29A52908148814CE
:10028000081106184C29310FB100B11F4C29071570
:100290008817061C4929A52986185729320FB2004C
:1002A000B21F572987148817861C5429A5290619B7
:1002B0006229330FB300B31F622907148817061D84
:1002C0005F29A52986196D29340FB400B41F6D2943
:1002D00007168817861D6A29A529061A7829350F59
:1002E000B500B51F782987168817061E7529A52918
:1002F000861A8329360FB600B61F83290717881779
:10030000861E8029A52905188E29370FB700B71F2B
:100310008E2987178817051C8B29A52985189929E7
:10032000380FB800B81F992908168817851C962918
:10033000A5290519A429390FB900B91FA4298715C2
:100340008817051DA129A5297D28FC21A8217D2824
:10035000A001A101A201A301A401A501A601A70179
:10036000A801A901AA01AB01AC01AD01AE01AF0129
:10037000B001B101B201B301B401B501B601B701D9
:10038000B801B901BA0108000108C1001F304105D8
:10039000C100E63E0318CD29D229C429C100C109F4
:1003A000E030C10541080319C429080007150817E2
:1003B0000C22071108130C22071588160C220711AE
:1003C00088120C220C22871488160C22871088129F
:1003D0000C22071488160C22071088120C2208160B
:1003E00088160C22081288120C22871688160C22F6
:1003F000871288120C22DC29880187010800081066
:1004000088100811071187100710081287120713A8
:1004100087130712871108006430BF002830BE0020
:100420002830BD00BD0B122ABE0B102ABF0B0E2AAE
:1004300008000A30BF002830BE002830BD00BD0BC8
:100440001F2ABE0B1D2ABF0B1B2A08002D30BF0020
:100450002830BE002830BD00BD0B2C2ABE0B2A2A36
:10046000BF0B282A0800071588170C2207118813CC
:100470000C22332A871488170C22871088130C2229
:100480003A2A071488170C22071088130C22080038
:1004900043100810881408150618572A200FA000CA
:1004A000A01F572A201F572A0130BC00722B861824
:1004B000622A210FA100A11F622A211F622A023095
:1004C000BC00722B06196D2A220FA200A21F6D2AF2
:1004D000221F6D2A0330BC00722B8619782A230F45
:1004E000A300A31F782A231F782A0430BC00722B94
:1004F000061A832A240FA400A41F832A241F832AF8
:100500000530BC00722B861A8E2A250FA500A51F68
:100510008E2A251F8E2A0630BC00722B0518992AB8
:10052000260FA600A61F992A261F992A0730BC006D
:10053000722B8518A42A270FA700A71FA42A271FFC
:10054000A42A0830BC00722B0519AF2A280FA80076
:10055000A81FAF2A281FAF2A0930BC00722B003019
:10056000BC000814881008158618BF2A290FA90096
:10057000A91FBF2A291FBF2A0A30BC00722B0619E7
:10058000CA2A2A0FAA00AA1FCA2A2A1FCA2A0B305F
:10059000BC00722B8619D52A2B0FAB00AB1FD52AB6
:1005A0002B1FD52A0C30BC00722B061AE02A2C0F08
:1005B000AC00AC1FE02A2C1FE02A0D30BC00722BCF
:1005C000861AEB2A2D0FAD00AD1FEB2A2D1FEB2A4B
:1005D0000E30BC00722B0518F62A2E0FAE00AE1F8F
:1005E000F62A2E1FF62A0F30BC00722B8518012B1D
:1005F0002F0FAF00AF1F012B2F1F012B1030BC009E
:10060000722B05190C2B300FB000B01F0C2B301FB4
:100610000C2B1130BC00722B08148814081106181A
:100620001A2B310FB100B11F1A2B311F1A2B1230A8
:10063000BC00722B8618252B320FB200B21F252B5F
:10064000321F252B1330BC00722B0619302B330FB1
:10065000B300B31F302B1430BC00331F302B722B70
:1006600086193B2B340FB400B41F3B2B341F3B2B9C
:100670001530BC00722B061A462B350FB500B51F7E
:10068000462B351F462B1630BC00722B861A512B79
:10069000360FB600B61F512B361F512B1730BC003A
:1006A000722B05185C2B370FB700B71F5C2B371F59
:1006B0005C2B1830BC00722B8518672B380FB800E4
:1006C000B81F672B381F672B1930BC00722B051918
:1006D000742B390FB900B91F742B391F742B1A30C2
:1006E000BC00722BA82143140800061C752B861C25
:1006F000752B061D752B861D752B061E752B861EEC
:10070000752B051C752B851C752B051D752B08007D
:100710004108BD00FE30C107C10A031D922B071519
:1007200088168C2C3D08C100FD30C107C10A031D8D
:100730009C2B871488168C2C3D08C100FC30C10707
:10074000C10A031DA62B071488168C2C3D08C10076
:10075000FB30C107C10A031DB02B071688168C2C6D
:100760003D08C100FA30C107C10A031DBA2B871624
:1007700088168C2C3D08C100F930C107C10A031D41
:10078000C42B071788168C2C3D08C100F830C10710
:10079000C10A031DCE2B871788168C2C3D08C1007B
:1007A000F730C107C10A031DD82B081688168C2CF8
:1007B0003D08C100F630C107C10A031DE22B8715B1
:1007C00088168C2C3D08C100F530C107C10A031DF5
:1007D000EC2B071508178C2C3D08C100F430C1071D
:1007E000C10A031DF62B871408178C2C3D08C10085
:1007F000F330C107C10A031D002C071408178C2C05
:100800003D08C100F230C107C10A031D0A2C0716BA
:1008100008178C2C3D08C100F130C107C10A031D27
:10082000142C871608178C2C3D08C100F030C10726
:10083000C10A031D1E2C071708178C2C3D08C10088
:10084000EF30C107C10A031D282C871708178C2C0D
:100850003D08C100EE30C107C10A031D322C081645
:1008600008178C2C3D08C100ED30C107C10A031DDB
:100870003C2C071588178C2C3D08C100EC30C107B3
:10088000C10A031D462C871488178C2C3D08C10013
:10089000EB30C107C10A031D502C071488178C2C9C
:1008A0003D08C100EA30C107C10A031D5A2C0716D2
:1008B00088178C2C3D08C100E930C107C10A031D0F
:1008C000642C871688178C2C3D08C100E830C107BE
:1008D000C10A031D6E2C071788178C2C3D08C10018
:1008E000E730C107C10A031D782C871788178C2CA5
:1008F0003D08C100E630C107C10A031D822C08165D
:1009000088178C2C3D08C100E530C107C10A031DC2
:100910008B2C87158817000008004311051A952CA9
:10092000440FC400C41F952C4315080007148816F3
:1009300019220710881219220800071488160C22A1
:10094000071088120C220800071408170C22071041
:1009500008130C2208004508C60008004608C50018
:100960000800071588162622FC21871488162622DF
:10097000FC21071488162622FC2107168816262239
:10098000FC21871688162622FC21071788162622A6
:10099000FC21871788162622FC2108168816262295
:1009A000FC21871588162622FC2107150817262208
:1009B000FC21871408172622FC2107140817262279
:1009C000FC21071608172622FC2187160817262265
:1009D000FC21071708172622FC2187170817262253
:1009E000FC21081608172622FC2107158817262245
:1009F000FC21871488172622FC2107148817262239
:100A0000FC21071688172622FC2187168817262224
:100A1000FC21071788172622FC2187178817262212
:100A2000FC21081688172622FC2187158817262204
:100A3000FC21080000340034FF3FFF3FFF3FFF3F31
:100A4000FF3FFF3FFF3FFF3FFF3FFF3FFF3FFF3FB6
:100A5000FF3FFF3FFF3FFF3FFF3FFF3FFF3FFF3FA6
:100A6000FF3FFF3FFF3FFF3FFF3FFF3FFF3FFF3F96
:100A7000FF3FFF3FFF3FFF3FFF3FFF3FFF3FFF3F86
:04400E00F228FF3F56
:10420000FF00FF00FF00FF00FF00FF00FF00FF00B6
:10421000FF00FF00FF00FF00FF00FF00FF00FF00A6
:10422000FF00FF00FF00FF00FF00FF00FF00FF0096
:10423000FF00FF00FF00FF00FF00FF00FF00FF0086
:10424000FF00FF00FF00FF00FF00FF00FF00FF0076
:10425000FF00FF00FF00FF00FF00FF00FF00FF0066
:10426000FF00FF00FF00FF00FF00FF00FF00FF0056
:10427000FF00FF00FF00FF00FF00FF00FF00FF0046
:10428000FF00FF00FF00FF00FF00FF00FF00FF0036
:10429000FF00FF00FF00FF00FF00FF00FF00FF0026
:1042A000FF00FF00FF00FF00FF00FF00FF00FF0016
:1042B000FF00FF00FF00FF00FF00FF00FF00FF0006
:1042C000FF00FF00FF00FF00FF00FF00FF00FF00F6
:1042D000FF00FF00FF00FF00FF00FF00FF00FF00E6
:1042E000FF00FF00FF00FF00FF00FF00FF00FF00D6
:1042F000FF00FF00FF00FF00FF00FF00FF00FF00C6
:10430000FF00FF00FF00FF00FF00FF00FF00FF00B5
:10431000FF00FF00FF00FF00FF00FF00FF00FF00A5
:10432000FF00FF00FF00FF00FF00FF00FF00FF0095
:10433000FF00FF00FF00FF00FF00FF00FF00FF0085
:10434000FF00FF00FF00FF00FF00FF00FF00FF0075
:10435000FF00FF00FF00FF00FF00FF00FF00FF0065
:10436000FF00FF00FF00FF00FF00FF00FF00FF0055
:10437000FF00FF00FF00FF00FF00FF00FF00FF0045
:10438000FF00FF00FF00FF00FF00FF00FF00FF0035
:10439000FF00FF00FF00FF00FF00FF00FF00FF0025
:1043A000FF00FF00FF00FF00FF00FF00FF00FF0015
:1043B000FF00FF00FF00FF00FF00FF00FF00FF0005
:1043C000FF00FF00FF00FF00FF00FF00FF00FF00F5
:1043D000FF00FF00FF00FF00FF00FF00FF00FF00E5
:1043E000FF00FF00FF00FF00FF00FF00FF00FF00D5
:1043F000FF00FF00FF00FF00FF00FF00FF00FF00C5
:0840000000000A0002000A00A2
:00000001FF
